{
  "contractName": "FileShare",
  "abi": [
    {
      "inputs": [
        {
          "internalType": "contract Token",
          "name": "_token",
          "type": "address"
        },
        {
          "internalType": "contract NFT",
          "name": "_nft",
          "type": "address"
        }
      ],
      "stateMutability": "nonpayable",
      "type": "constructor"
    },
    {
      "anonymous": false,
      "inputs": [
        {
          "indexed": true,
          "internalType": "address",
          "name": "addr",
          "type": "address"
        },
        {
          "indexed": false,
          "internalType": "uint256",
          "name": "itemID",
          "type": "uint256"
        }
      ],
      "name": "NftMint",
      "type": "event"
    },
    {
      "anonymous": false,
      "inputs": [
        {
          "indexed": true,
          "internalType": "address",
          "name": "addr",
          "type": "address"
        },
        {
          "indexed": false,
          "internalType": "uint256",
          "name": "amount",
          "type": "uint256"
        }
      ],
      "name": "TokenMint",
      "type": "event"
    },
    {
      "inputs": [
        {
          "internalType": "address",
          "name": "addr",
          "type": "address"
        }
      ],
      "name": "mintNFT",
      "outputs": [],
      "stateMutability": "nonpayable",
      "type": "function"
    },
    {
      "inputs": [
        {
          "internalType": "address",
          "name": "addr",
          "type": "address"
        },
        {
          "internalType": "uint256",
          "name": "amount",
          "type": "uint256"
        }
      ],
      "name": "mintToken",
      "outputs": [],
      "stateMutability": "nonpayable",
      "type": "function"
    }
  ],
  "bytecode": "0x60806040526040518060800160405280604a8152602001610567604a913960039080519060200190610032929190610105565b5034801561003f57600080fd5b506040516105b13803806105b18339818101604052604081101561006257600080fd5b810190808051906020019092919080519060200190929190505050816000806101000a81548173ffffffffffffffffffffffffffffffffffffffff021916908373ffffffffffffffffffffffffffffffffffffffff16021790555080600160006101000a81548173ffffffffffffffffffffffffffffffffffffffff021916908373ffffffffffffffffffffffffffffffffffffffff16021790555050506101b0565b828054600181600116156101000203166002900490600052602060002090601f01602090048101928261013b5760008555610182565b82601f1061015457805160ff1916838001178555610182565b82800160010185558215610182579182015b82811115610181578251825591602001919060010190610166565b5b50905061018f9190610193565b5090565b5b808211156101ac576000816000905550600101610194565b5090565b6103a8806101bf6000396000f3fe608060405234801561001057600080fd5b50600436106100365760003560e01c806354ba0f271461003b57806379c650681461007f575b600080fd5b61007d6004803603602081101561005157600080fd5b81019080803573ffffffffffffffffffffffffffffffffffffffff1690602001909291905050506100cd565b005b6100cb6004803603604081101561009557600080fd5b81019080803573ffffffffffffffffffffffffffffffffffffffff16906020019092919080359060200190929190505050610277565b005b600160009054906101000a900473ffffffffffffffffffffffffffffffffffffffff1673ffffffffffffffffffffffffffffffffffffffff1663eacabe148260036040518363ffffffff1660e01b8152600401808373ffffffffffffffffffffffffffffffffffffffff168152602001806020018281038252838181546001816001161561010002031660029004815260200191508054600181600116156101000203166002900480156101c25780601f10610197576101008083540402835291602001916101c2565b820191906000526020600020905b8154815290600101906020018083116101a557829003601f168201915b50509350505050602060405180830381600087803b1580156101e357600080fd5b505af11580156101f7573d6000803e3d6000fd5b505050506040513d602081101561020d57600080fd5b81019080805190602001909291905050506002819055508073ffffffffffffffffffffffffffffffffffffffff167f1b491f3c27f1c2f9f3f5750ffbc424f247dee42fe14c2c10b2213db655a299716002546040518082815260200191505060405180910390a250565b60008054906101000a900473ffffffffffffffffffffffffffffffffffffffff1673ffffffffffffffffffffffffffffffffffffffff166340c10f1983836040518363ffffffff1660e01b8152600401808373ffffffffffffffffffffffffffffffffffffffff16815260200182815260200192505050600060405180830381600087803b15801561030857600080fd5b505af115801561031c573d6000803e3d6000fd5b505050508173ffffffffffffffffffffffffffffffffffffffff167f36bf5aa3964be01dbd95a0154a8930793fe68353bdc580871ffb2c911366bbc7826040518082815260200191505060405180910390a2505056fea2646970667358221220355f8e86b09c334969b918fbc6aab4fa93e813c7a438f0ae219f48f42516554464736f6c6343000706003368747470733a2f2f697066732e696e667572612e696f2f697066732f516d51617774786e587271543151796f64516e53566a364877716169623937474e4d72716b376334344361647766",
  "immutableReferences": {},
  "source": "// SPDX-License-Identifier: MIT\r\npragma solidity >=0.5.16;\r\n\r\nimport \"./Token.sol\";\r\nimport \"./NFT.sol\";\r\n\r\ncontract FileShare {\r\n    //assign Token and NFT contract to variable\r\n    Token private token;\r\n    NFT private nft;\r\n\r\n    //Item id for a unique NFT\r\n    uint256 private itemID;\r\n\r\n    //Example IPFS URI for NFT minting test\r\n    string ipfsURI = \"https://ipfs.infura.io/ipfs/QmQawtxnXrqT1QyodQnSVj6Hwqaib97GNMrqk7c44Cadwf\"; \r\n\r\n    //event for token and NFT minting\r\n    event NftMint(address indexed addr, uint256 itemID);\r\n    event TokenMint(address indexed addr, uint256 amount);\r\n\r\n    //pass as constructor argument deployed Token contract\r\n    constructor(Token _token, NFT _nft) public {\r\n      //assign token deployed contract to variable\r\n      token = _token;\r\n      nft = _nft;\r\n    }\r\n\r\n    //function for minting NFT to an account\r\n    function mintNFT(address addr) public{\r\n        itemID = nft.mintNFT(addr, ipfsURI);\r\n        emit NftMint(addr, itemID);\r\n    }\r\n\r\n    //function for minting \"FILO\" token to an account\r\n    function mintToken(address addr, uint256 amount) public{\r\n        token.mint(addr, amount);\r\n        emit TokenMint(addr, amount);\r\n    }\r\n\r\n}",
  "sourcePath": "C:/Users/Jacky/Desktop/CS/projects/file-sharing-dapp/src/contracts/FileShare.sol",
  "compiler": {
    "name": "solc",
    "version": "0.7.6+commit.7338295f.Emscripten.clang"
  },
  "schemaVersion": "3.2.3",
  "updatedAt": "2022-01-26T09:06:27.471Z",
  "networkType": "ethereum",
  "devdoc": {
    "kind": "dev",
    "methods": {},
    "version": 1
  },
  "userdoc": {
    "kind": "user",
    "methods": {},
    "version": 1
  }
}