{
  "contractName": "FileShare",
  "abi": [
    {
      "inputs": [
        {
          "internalType": "contract Token",
          "name": "_token",
          "type": "address"
        },
        {
          "internalType": "contract NFT",
          "name": "_nft",
          "type": "address"
        }
      ],
      "stateMutability": "nonpayable",
      "type": "constructor"
    },
    {
      "anonymous": false,
      "inputs": [
        {
          "indexed": true,
          "internalType": "address",
          "name": "from",
          "type": "address"
        },
        {
          "indexed": true,
          "internalType": "address",
          "name": "to",
          "type": "address"
        },
        {
          "indexed": false,
          "internalType": "uint256",
          "name": "itemID",
          "type": "uint256"
        }
      ],
      "name": "NFTtransfer",
      "type": "event"
    },
    {
      "anonymous": false,
      "inputs": [
        {
          "indexed": true,
          "internalType": "address",
          "name": "addr",
          "type": "address"
        },
        {
          "indexed": false,
          "internalType": "uint256",
          "name": "itemID",
          "type": "uint256"
        }
      ],
      "name": "NftMint",
      "type": "event"
    },
    {
      "anonymous": false,
      "inputs": [
        {
          "indexed": true,
          "internalType": "address",
          "name": "addr",
          "type": "address"
        },
        {
          "indexed": false,
          "internalType": "uint256",
          "name": "amount",
          "type": "uint256"
        }
      ],
      "name": "TokenMint",
      "type": "event"
    },
    {
      "inputs": [],
      "name": "getCount",
      "outputs": [
        {
          "internalType": "uint256",
          "name": "",
          "type": "uint256"
        }
      ],
      "stateMutability": "view",
      "type": "function",
      "constant": true
    },
    {
      "inputs": [
        {
          "internalType": "string",
          "name": "owner",
          "type": "string"
        },
        {
          "internalType": "string",
          "name": "uri",
          "type": "string"
        },
        {
          "internalType": "string",
          "name": "name",
          "type": "string"
        },
        {
          "internalType": "string",
          "name": "fileType",
          "type": "string"
        },
        {
          "internalType": "string",
          "name": "short",
          "type": "string"
        },
        {
          "internalType": "string",
          "name": "long",
          "type": "string"
        }
      ],
      "name": "addItem",
      "outputs": [],
      "stateMutability": "nonpayable",
      "type": "function"
    },
    {
      "inputs": [
        {
          "internalType": "uint256",
          "name": "id",
          "type": "uint256"
        }
      ],
      "name": "getItem",
      "outputs": [
        {
          "components": [
            {
              "internalType": "uint256",
              "name": "id",
              "type": "uint256"
            },
            {
              "internalType": "uint256",
              "name": "nftId",
              "type": "uint256"
            },
            {
              "internalType": "string",
              "name": "ownerAddress",
              "type": "string"
            },
            {
              "internalType": "string",
              "name": "fileURI",
              "type": "string"
            },
            {
              "internalType": "string",
              "name": "name",
              "type": "string"
            },
            {
              "internalType": "string",
              "name": "fileType",
              "type": "string"
            },
            {
              "internalType": "string",
              "name": "shortDescription",
              "type": "string"
            },
            {
              "internalType": "string",
              "name": "longDescription",
              "type": "string"
            }
          ],
          "internalType": "struct FileShare.fileItem",
          "name": "",
          "type": "tuple"
        }
      ],
      "stateMutability": "view",
      "type": "function",
      "constant": true
    },
    {
      "inputs": [],
      "name": "getItems",
      "outputs": [
        {
          "components": [
            {
              "internalType": "uint256",
              "name": "id",
              "type": "uint256"
            },
            {
              "internalType": "uint256",
              "name": "nftId",
              "type": "uint256"
            },
            {
              "internalType": "string",
              "name": "ownerAddress",
              "type": "string"
            },
            {
              "internalType": "string",
              "name": "fileURI",
              "type": "string"
            },
            {
              "internalType": "string",
              "name": "name",
              "type": "string"
            },
            {
              "internalType": "string",
              "name": "fileType",
              "type": "string"
            },
            {
              "internalType": "string",
              "name": "shortDescription",
              "type": "string"
            },
            {
              "internalType": "string",
              "name": "longDescription",
              "type": "string"
            }
          ],
          "internalType": "struct FileShare.fileItem[]",
          "name": "",
          "type": "tuple[]"
        }
      ],
      "stateMutability": "view",
      "type": "function",
      "constant": true
    },
    {
      "inputs": [
        {
          "internalType": "uint256",
          "name": "id",
          "type": "uint256"
        }
      ],
      "name": "deleteItem",
      "outputs": [],
      "stateMutability": "nonpayable",
      "type": "function"
    },
    {
      "inputs": [
        {
          "internalType": "address",
          "name": "addr",
          "type": "address"
        },
        {
          "internalType": "string",
          "name": "ipfsURI",
          "type": "string"
        }
      ],
      "name": "mintNFT",
      "outputs": [],
      "stateMutability": "nonpayable",
      "type": "function"
    },
    {
      "inputs": [
        {
          "internalType": "address",
          "name": "addr",
          "type": "address"
        },
        {
          "internalType": "uint256",
          "name": "amount",
          "type": "uint256"
        }
      ],
      "name": "mintToken",
      "outputs": [],
      "stateMutability": "nonpayable",
      "type": "function"
    },
    {
      "inputs": [
        {
          "internalType": "address",
          "name": "addr",
          "type": "address"
        }
      ],
      "name": "balanceOfFILO",
      "outputs": [
        {
          "internalType": "uint256",
          "name": "",
          "type": "uint256"
        }
      ],
      "stateMutability": "view",
      "type": "function",
      "constant": true
    },
    {
      "inputs": [
        {
          "internalType": "address",
          "name": "addr",
          "type": "address"
        }
      ],
      "name": "balanceOfNFT",
      "outputs": [
        {
          "internalType": "uint256",
          "name": "",
          "type": "uint256"
        }
      ],
      "stateMutability": "view",
      "type": "function",
      "constant": true
    },
    {
      "inputs": [],
      "name": "getNFTId",
      "outputs": [
        {
          "internalType": "uint256",
          "name": "",
          "type": "uint256"
        }
      ],
      "stateMutability": "view",
      "type": "function",
      "constant": true
    },
    {
      "inputs": [
        {
          "internalType": "uint256",
          "name": "tokenId",
          "type": "uint256"
        }
      ],
      "name": "checkURI",
      "outputs": [
        {
          "internalType": "string",
          "name": "",
          "type": "string"
        }
      ],
      "stateMutability": "view",
      "type": "function",
      "constant": true
    },
    {
      "inputs": [
        {
          "internalType": "uint256",
          "name": "tokenId",
          "type": "uint256"
        }
      ],
      "name": "checkOwner",
      "outputs": [
        {
          "internalType": "address",
          "name": "",
          "type": "address"
        }
      ],
      "stateMutability": "view",
      "type": "function",
      "constant": true
    },
    {
      "inputs": [
        {
          "internalType": "address",
          "name": "from",
          "type": "address"
        },
        {
          "internalType": "address",
          "name": "to",
          "type": "address"
        },
        {
          "internalType": "uint256",
          "name": "id",
          "type": "uint256"
        },
        {
          "internalType": "uint256",
          "name": "nftid",
          "type": "uint256"
        }
      ],
      "name": "transferNFT",
      "outputs": [],
      "stateMutability": "nonpayable",
      "type": "function"
    }
  ],
  "bytecode": "0x60806040523480156200001157600080fd5b50604051620023c7380380620023c78339818101604052810190620000379190620000ff565b81600360006101000a81548173ffffffffffffffffffffffffffffffffffffffff021916908373ffffffffffffffffffffffffffffffffffffffff16021790555080600460006101000a81548173ffffffffffffffffffffffffffffffffffffffff021916908373ffffffffffffffffffffffffffffffffffffffff160217905550600060018190555060006002819055505050620001d0565b600081519050620000e2816200019c565b92915050565b600081519050620000f981620001b6565b92915050565b600080604083850312156200011357600080fd5b60006200012385828601620000e8565b92505060206200013685828601620000d1565b9150509250929050565b60006200014d826200017c565b9050919050565b6000620001618262000140565b9050919050565b6000620001758262000140565b9050919050565b600073ffffffffffffffffffffffffffffffffffffffff82169050919050565b620001a78162000154565b8114620001b357600080fd5b50565b620001c18162000168565b8114620001cd57600080fd5b50565b6121e780620001e06000396000f3fe608060405234801561001057600080fd5b50600436106100cf5760003560e01c80639870dce01161008c578063a87d942c11610066578063a87d942c14610224578063b6190e3e14610242578063eacabe141461025e578063f5b100ea1461027a576100cf565b80639870dce0146101a6578063a2c7fc54146101d6578063a8688435146101f4576100cf565b806303ff52b7146100d45780633129e773146100f0578063410d59cc146101205780636517982f1461013e578063654fc8331461016e57806379c650681461018a575b600080fd5b6100ee60048036038101906100e991906118f4565b6102aa565b005b61010a60048036038101906101059190611b41565b610517565b6040516101179190611fb8565b60405180910390f35b610128610924565b6040516101359190611f74565b60405180910390f35b610158600480360381019061015391906118a2565b610dbc565b6040516101659190611fda565b60405180910390f35b61018860048036038101906101839190611b41565b610e70565b005b6101a4600480360381019061019f91906119ab565b610ef8565b005b6101c060048036038101906101bb9190611b41565b610fe6565b6040516101cd9190611e70565b60405180910390f35b6101de61109a565b6040516101eb9190611fda565b60405180910390f35b61020e60048036038101906102099190611b41565b6110a4565b60405161021b9190611f96565b60405180910390f35b61022c61115d565b6040516102399190611fda565b60405180910390f35b61025c60048036038101906102579190611a28565b611167565b005b61027860048036038101906102739190611957565b611489565b005b610294600480360381019061028f91906118a2565b611592565b6040516102a19190611fda565b60405180910390f35b600460009054906101000a900473ffffffffffffffffffffffffffffffffffffffff1673ffffffffffffffffffffffffffffffffffffffff166323b872dd8585846040518463ffffffff1660e01b815260040161030993929190611ee4565b600060405180830381600087803b15801561032357600080fd5b505af1158015610337573d6000803e3d6000fd5b50505050600080838152602001908152602001600020600080820160009055600182016000905560028201600061036e9190611646565b60038201600061037e9190611646565b60048201600061038e9190611646565b60058201600061039e9190611646565b6006820160006103ae9190611646565b6007820160006103be9190611646565b5050600068056bc75e2d631000009050600360009054906101000a900473ffffffffffffffffffffffffffffffffffffffff1673ffffffffffffffffffffffffffffffffffffffff166340c10f1986836040518363ffffffff1660e01b815260040161042b929190611f4b565b600060405180830381600087803b15801561044557600080fd5b505af1158015610459573d6000803e3d6000fd5b505050508373ffffffffffffffffffffffffffffffffffffffff168573ffffffffffffffffffffffffffffffffffffffff167f73a000fba9e52797db8387bb2b55fb3bc4760ba3c13a6edff5b8f20dc23e1ddc846040516104ba9190611fda565b60405180910390a38473ffffffffffffffffffffffffffffffffffffffff167f36bf5aa3964be01dbd95a0154a8930793fe68353bdc580871ffb2c911366bbc7826040516105089190611fda565b60405180910390a25050505050565b61051f61168e565b600080838152602001908152602001600020604051806101000160405290816000820154815260200160018201548152602001600282018054600181600116156101000203166002900480601f0160208091040260200160405190810160405280929190818152602001828054600181600116156101000203166002900480156105ea5780601f106105bf576101008083540402835291602001916105ea565b820191906000526020600020905b8154815290600101906020018083116105cd57829003601f168201915b50505050508152602001600382018054600181600116156101000203166002900480601f01602080910402602001604051908101604052809291908181526020018280546001816001161561010002031660029004801561068c5780601f106106615761010080835404028352916020019161068c565b820191906000526020600020905b81548152906001019060200180831161066f57829003601f168201915b50505050508152602001600482018054600181600116156101000203166002900480601f01602080910402602001604051908101604052809291908181526020018280546001816001161561010002031660029004801561072e5780601f106107035761010080835404028352916020019161072e565b820191906000526020600020905b81548152906001019060200180831161071157829003601f168201915b50505050508152602001600582018054600181600116156101000203166002900480601f0160208091040260200160405190810160405280929190818152602001828054600181600116156101000203166002900480156107d05780601f106107a5576101008083540402835291602001916107d0565b820191906000526020600020905b8154815290600101906020018083116107b357829003601f168201915b50505050508152602001600682018054600181600116156101000203166002900480601f0160208091040260200160405190810160405280929190818152602001828054600181600116156101000203166002900480156108725780601f1061084757610100808354040283529160200191610872565b820191906000526020600020905b81548152906001019060200180831161085557829003601f168201915b50505050508152602001600782018054600181600116156101000203166002900480601f0160208091040260200160405190810160405280929190818152602001828054600181600116156101000203166002900480156109145780601f106108e957610100808354040283529160200191610914565b820191906000526020600020905b8154815290600101906020018083116108f757829003601f168201915b5050505050815250509050919050565b60606000600180540167ffffffffffffffff8111801561094357600080fd5b5060405190808252806020026020018201604052801561097d57816020015b61096a61168e565b8152602001906001900390816109625790505b50905060005b6001548111610db4576000806000838152602001908152602001600020905080604051806101000160405290816000820154815260200160018201548152602001600282018054600181600116156101000203166002900480601f016020809104026020016040519081016040528092919081815260200182805460018160011615610100020316600290048015610a5c5780601f10610a3157610100808354040283529160200191610a5c565b820191906000526020600020905b815481529060010190602001808311610a3f57829003601f168201915b50505050508152602001600382018054600181600116156101000203166002900480601f016020809104026020016040519081016040528092919081815260200182805460018160011615610100020316600290048015610afe5780601f10610ad357610100808354040283529160200191610afe565b820191906000526020600020905b815481529060010190602001808311610ae157829003601f168201915b50505050508152602001600482018054600181600116156101000203166002900480601f016020809104026020016040519081016040528092919081815260200182805460018160011615610100020316600290048015610ba05780601f10610b7557610100808354040283529160200191610ba0565b820191906000526020600020905b815481529060010190602001808311610b8357829003601f168201915b50505050508152602001600582018054600181600116156101000203166002900480601f016020809104026020016040519081016040528092919081815260200182805460018160011615610100020316600290048015610c425780601f10610c1757610100808354040283529160200191610c42565b820191906000526020600020905b815481529060010190602001808311610c2557829003601f168201915b50505050508152602001600682018054600181600116156101000203166002900480601f016020809104026020016040519081016040528092919081815260200182805460018160011615610100020316600290048015610ce45780601f10610cb957610100808354040283529160200191610ce4565b820191906000526020600020905b815481529060010190602001808311610cc757829003601f168201915b50505050508152602001600782018054600181600116156101000203166002900480601f016020809104026020016040519081016040528092919081815260200182805460018160011615610100020316600290048015610d865780601f10610d5b57610100808354040283529160200191610d86565b820191906000526020600020905b815481529060010190602001808311610d6957829003601f168201915b505050505081525050838381518110610d9b57fe5b6020026020010181905250508080600101915050610983565b508091505090565b6000600360009054906101000a900473ffffffffffffffffffffffffffffffffffffffff1673ffffffffffffffffffffffffffffffffffffffff166370a08231836040518263ffffffff1660e01b8152600401610e199190611e70565b60206040518083038186803b158015610e3157600080fd5b505afa158015610e45573d6000803e3d6000fd5b505050506040513d601f19601f82011682018060405250810190610e699190611b6a565b9050919050565b6000808281526020019081526020016000206000808201600090556001820160009055600282016000610ea39190611646565b600382016000610eb39190611646565b600482016000610ec39190611646565b600582016000610ed39190611646565b600682016000610ee39190611646565b600782016000610ef39190611646565b505050565b670de0b6b3a764000081029050600360009054906101000a900473ffffffffffffffffffffffffffffffffffffffff1673ffffffffffffffffffffffffffffffffffffffff166340c10f1983836040518363ffffffff1660e01b8152600401610f62929190611f4b565b600060405180830381600087803b158015610f7c57600080fd5b505af1158015610f90573d6000803e3d6000fd5b505050508173ffffffffffffffffffffffffffffffffffffffff167f36bf5aa3964be01dbd95a0154a8930793fe68353bdc580871ffb2c911366bbc782604051610fda9190611fda565b60405180910390a25050565b6000600460009054906101000a900473ffffffffffffffffffffffffffffffffffffffff1673ffffffffffffffffffffffffffffffffffffffff16636352211e836040518263ffffffff1660e01b81526004016110439190611fda565b60206040518083038186803b15801561105b57600080fd5b505afa15801561106f573d6000803e3d6000fd5b505050506040513d601f19601f8201168201806040525081019061109391906118cb565b9050919050565b6000600254905090565b6060600460009054906101000a900473ffffffffffffffffffffffffffffffffffffffff1673ffffffffffffffffffffffffffffffffffffffff1663c87b56dd836040518263ffffffff1660e01b81526004016111019190611fda565b60006040518083038186803b15801561111957600080fd5b505afa15801561112d573d6000803e3d6000fd5b505050506040513d6000823e3d601f19601f8201168201806040525081019061115691906119e7565b9050919050565b6000600154905090565b600160008154809291906001019190505550600460009054906101000a900473ffffffffffffffffffffffffffffffffffffffff1673ffffffffffffffffffffffffffffffffffffffff1663eacabe1433876040518363ffffffff1660e01b81526004016111d6929190611e8b565b602060405180830381600087803b1580156111f057600080fd5b505af1158015611204573d6000803e3d6000fd5b505050506040513d601f19601f820116820180604052508101906112289190611b6a565b60028190555060006801a055690d9db800009050600360009054906101000a900473ffffffffffffffffffffffffffffffffffffffff1673ffffffffffffffffffffffffffffffffffffffff166340c10f1933836040518363ffffffff1660e01b8152600401611299929190611ebb565b600060405180830381600087803b1580156112b357600080fd5b505af11580156112c7573d6000803e3d6000fd5b50505050604051806101000160405280600154815260200160025481526020018881526020018781526020018681526020018581526020018481526020018381525060008060015481526020019081526020016000206000820151816000015560208201518160010155604082015181600201908051906020019061134d9291906116d3565b50606082015181600301908051906020019061136a9291906116d3565b5060808201518160040190805190602001906113879291906116d3565b5060a08201518160050190805190602001906113a49291906116d3565b5060c08201518160060190805190602001906113c19291906116d3565b5060e08201518160070190805190602001906113de9291906116d3565b509050503373ffffffffffffffffffffffffffffffffffffffff167f1b491f3c27f1c2f9f3f5750ffbc424f247dee42fe14c2c10b2213db655a2997160025460405161142a9190611fda565b60405180910390a23373ffffffffffffffffffffffffffffffffffffffff167f36bf5aa3964be01dbd95a0154a8930793fe68353bdc580871ffb2c911366bbc7826040516114789190611fda565b60405180910390a250505050505050565b600460009054906101000a900473ffffffffffffffffffffffffffffffffffffffff1673ffffffffffffffffffffffffffffffffffffffff1663eacabe1483836040518363ffffffff1660e01b81526004016114e6929190611f1b565b602060405180830381600087803b15801561150057600080fd5b505af1158015611514573d6000803e3d6000fd5b505050506040513d601f19601f820116820180604052508101906115389190611b6a565b6002819055508173ffffffffffffffffffffffffffffffffffffffff167f1b491f3c27f1c2f9f3f5750ffbc424f247dee42fe14c2c10b2213db655a299716002546040516115869190611fda565b60405180910390a25050565b6000600460009054906101000a900473ffffffffffffffffffffffffffffffffffffffff1673ffffffffffffffffffffffffffffffffffffffff166370a08231836040518263ffffffff1660e01b81526004016115ef9190611e70565b60206040518083038186803b15801561160757600080fd5b505afa15801561161b573d6000803e3d6000fd5b505050506040513d601f19601f8201168201806040525081019061163f9190611b6a565b9050919050565b50805460018160011615610100020316600290046000825580601f1061166c575061168b565b601f01602090049060005260206000209081019061168a9190611761565b5b50565b60405180610100016040528060008152602001600081526020016060815260200160608152602001606081526020016060815260200160608152602001606081525090565b828054600181600116156101000203166002900490600052602060002090601f0160209004810192826117095760008555611750565b82601f1061172257805160ff1916838001178555611750565b82800160010185558215611750579182015b8281111561174f578251825591602001919060010190611734565b5b50905061175d9190611761565b5090565b5b8082111561177a576000816000905550600101611762565b5090565b600061179161178c84612026565b611ff5565b9050828152602081018484840111156117a957600080fd5b6117b484828561212e565b509392505050565b60006117cf6117ca84612026565b611ff5565b9050828152602081018484840111156117e757600080fd5b6117f284828561213d565b509392505050565b60008135905061180981612183565b92915050565b60008151905061181e81612183565b92915050565b600082601f83011261183557600080fd5b813561184584826020860161177e565b91505092915050565b600082601f83011261185f57600080fd5b815161186f8482602086016117bc565b91505092915050565b6000813590506118878161219a565b92915050565b60008151905061189c8161219a565b92915050565b6000602082840312156118b457600080fd5b60006118c2848285016117fa565b91505092915050565b6000602082840312156118dd57600080fd5b60006118eb8482850161180f565b91505092915050565b6000806000806080858703121561190a57600080fd5b6000611918878288016117fa565b9450506020611929878288016117fa565b935050604061193a87828801611878565b925050606061194b87828801611878565b91505092959194509250565b6000806040838503121561196a57600080fd5b6000611978858286016117fa565b925050602083013567ffffffffffffffff81111561199557600080fd5b6119a185828601611824565b9150509250929050565b600080604083850312156119be57600080fd5b60006119cc858286016117fa565b92505060206119dd85828601611878565b9150509250929050565b6000602082840312156119f957600080fd5b600082015167ffffffffffffffff811115611a1357600080fd5b611a1f8482850161184e565b91505092915050565b60008060008060008060c08789031215611a4157600080fd5b600087013567ffffffffffffffff811115611a5b57600080fd5b611a6789828a01611824565b965050602087013567ffffffffffffffff811115611a8457600080fd5b611a9089828a01611824565b955050604087013567ffffffffffffffff811115611aad57600080fd5b611ab989828a01611824565b945050606087013567ffffffffffffffff811115611ad657600080fd5b611ae289828a01611824565b935050608087013567ffffffffffffffff811115611aff57600080fd5b611b0b89828a01611824565b92505060a087013567ffffffffffffffff811115611b2857600080fd5b611b3489828a01611824565b9150509295509295509295565b600060208284031215611b5357600080fd5b6000611b6184828501611878565b91505092915050565b600060208284031215611b7c57600080fd5b6000611b8a8482850161188d565b91505092915050565b6000611b9f8383611cac565b905092915050565b611bb0816120f8565b82525050565b611bbf816120bc565b82525050565b6000611bd082612066565b611bda8185612089565b935083602082028501611bec85612056565b8060005b85811015611c285784840389528151611c098582611b93565b9450611c148361207c565b925060208a01995050600181019050611bf0565b50829750879550505050505092915050565b6000611c4582612071565b611c4f818561209a565b9350611c5f81856020860161213d565b611c6881612172565b840191505092915050565b6000611c7e82612071565b611c8881856120ab565b9350611c9881856020860161213d565b611ca181612172565b840191505092915050565b600061010083016000830151611cc56000860182611e52565b506020830151611cd86020860182611e52565b5060408301518482036040860152611cf08282611c3a565b91505060608301518482036060860152611d0a8282611c3a565b91505060808301518482036080860152611d248282611c3a565b91505060a083015184820360a0860152611d3e8282611c3a565b91505060c083015184820360c0860152611d588282611c3a565b91505060e083015184820360e0860152611d728282611c3a565b9150508091505092915050565b600061010083016000830151611d986000860182611e52565b506020830151611dab6020860182611e52565b5060408301518482036040860152611dc38282611c3a565b91505060608301518482036060860152611ddd8282611c3a565b91505060808301518482036080860152611df78282611c3a565b91505060a083015184820360a0860152611e118282611c3a565b91505060c083015184820360c0860152611e2b8282611c3a565b91505060e083015184820360e0860152611e458282611c3a565b9150508091505092915050565b611e5b816120ee565b82525050565b611e6a816120ee565b82525050565b6000602082019050611e856000830184611bb6565b92915050565b6000604082019050611ea06000830185611ba7565b8181036020830152611eb28184611c73565b90509392505050565b6000604082019050611ed06000830185611ba7565b611edd6020830184611e61565b9392505050565b6000606082019050611ef96000830186611bb6565b611f066020830185611bb6565b611f136040830184611e61565b949350505050565b6000604082019050611f306000830185611bb6565b8181036020830152611f428184611c73565b90509392505050565b6000604082019050611f606000830185611bb6565b611f6d6020830184611e61565b9392505050565b60006020820190508181036000830152611f8e8184611bc5565b905092915050565b60006020820190508181036000830152611fb08184611c73565b905092915050565b60006020820190508181036000830152611fd28184611d7f565b905092915050565b6000602082019050611fef6000830184611e61565b92915050565b6000604051905081810181811067ffffffffffffffff8211171561201c5761201b612170565b5b8060405250919050565b600067ffffffffffffffff82111561204157612040612170565b5b601f19601f8301169050602081019050919050565b6000819050602082019050919050565b600081519050919050565b600081519050919050565b6000602082019050919050565b600082825260208201905092915050565b600082825260208201905092915050565b600082825260208201905092915050565b60006120c7826120ce565b9050919050565b600073ffffffffffffffffffffffffffffffffffffffff82169050919050565b6000819050919050565b60006121038261210a565b9050919050565b60006121158261211c565b9050919050565b6000612127826120ce565b9050919050565b82818337600083830152505050565b60005b8381101561215b578082015181840152602081019050612140565b8381111561216a576000848401525b50505050565bfe5b6000601f19601f8301169050919050565b61218c816120bc565b811461219757600080fd5b50565b6121a3816120ee565b81146121ae57600080fd5b5056fea2646970667358221220d9c131a7f36bafe3a0d1bc748c7ba45299e67f6a52eb6112a9b622077f3b4a5464736f6c63430007060033",
  "immutableReferences": {},
  "source": "// SPDX-License-Identifier: MIT\r\npragma solidity >=0.5.16;\r\npragma experimental ABIEncoderV2;\r\n\r\nimport \"./Token.sol\";\r\nimport \"./NFT.sol\";\r\n\r\n//Controller & Data Storage contract\r\ncontract FileShare {\r\n    //event for token and NFT minting\r\n    event NftMint(address indexed addr, uint256 itemID);\r\n    event TokenMint(address indexed addr, uint256 amount);\r\n    event NFTtransfer(address indexed from, address indexed to, uint256 itemID);\r\n\r\n    //File data item\r\n    struct fileItem{\r\n        uint id;\r\n        uint nftId;\r\n        string ownerAddress;\r\n        string fileURI;\r\n        string name;\r\n        string fileType;\r\n        string shortDescription;\r\n        string longDescription;\r\n    }\r\n\r\n    mapping(uint => fileItem) private items;\r\n\r\n    //File data item count\r\n    uint256 private itemCount;\r\n\r\n    //Item id for a unique NFT\r\n    uint256 private itemID;\r\n\r\n    //assign Token and NFT contract to variable\r\n    Token private token;\r\n    NFT private nft;\r\n\r\n    //Example IPFS URI for NFT minting test\r\n    //string ipfsURI = \"https://ipfs.infura.io/ipfs/QmQawtxnXrqT1QyodQnSVj6Hwqaib97GNMrqk7c44Cadwf\"; \r\n\r\n    //pass as constructor argument deployed Token contract\r\n    constructor(Token _token, NFT _nft) public {\r\n      //assign token deployed contract to variable\r\n      token = _token;\r\n      nft = _nft;\r\n\r\n      //initialze item count and NFT item id to zero\r\n      itemCount = 0;\r\n      itemID = 0;\r\n    }\r\n\r\n    // ------------------------------------------------- File Data Items Operations -------------------------------------------- //\r\n\r\n    //get the file data item count\r\n    function getCount() public view returns (uint256){\r\n        return itemCount;\r\n    }\r\n\r\n    //add new file data item, mint the new file as NFT & give 30 FILO token to user\r\n    function addItem(string memory owner, string memory uri, string memory name, string memory fileType, string memory short, string memory long) public{\r\n        itemCount++;\r\n        itemID = nft.mintNFT(msg.sender, uri);\r\n        uint256 amount = 30 * 10**18;\r\n        token.mint(msg.sender, amount);\r\n        items[itemCount] = fileItem(itemCount, itemID, owner, uri, name, fileType, short, long);\r\n\r\n        emit NftMint(msg.sender, itemID);\r\n        emit TokenMint(msg.sender, amount);\r\n    }\r\n\r\n    //get a single file item\r\n    function getItem(uint id) public view returns (fileItem memory){\r\n        return items[id];\r\n    }\r\n\r\n    //get all file data items\r\n    function getItems() public view returns (fileItem[] memory){\r\n        fileItem[] memory tmpItems = new fileItem[](itemCount+1);\r\n        for (uint i=0; i<=itemCount; i++){\r\n            fileItem storage tmpitem = items[i];\r\n            tmpItems[i] = tmpitem;\r\n        }\r\n        return tmpItems;\r\n    }\r\n\r\n    //delete a file data item\r\n    // **delete in solidity smart contract means setting all value to 0 or '' (empty string)\r\n    function deleteItem(uint id) public{\r\n        delete(items[id]);\r\n    }\r\n\r\n    // ------------------------------------------------- FILO Token and NFT Operations -------------------------------------------- //\r\n\r\n    //minting NFT to an account, return the NFT id\r\n    function mintNFT(address addr, string memory ipfsURI) public{\r\n        itemID = nft.mintNFT(addr, ipfsURI);\r\n        //nft.approve(address(this), itemID);\r\n        emit NftMint(addr, itemID);\r\n    }\r\n\r\n    //minting \"FILO\" token to an account\r\n    function mintToken(address addr, uint256 amount) public{\r\n        amount *= 10**18;\r\n        token.mint(addr, amount);\r\n        emit TokenMint(addr, amount);\r\n    }\r\n\r\n    //check balance of \"FILO\" token\r\n    function balanceOfFILO(address addr) public view returns (uint256){\r\n        return token.balanceOf(addr);\r\n    }\r\n\r\n    //check balance of \"FileShareNFT\" NFT token\r\n    function balanceOfNFT(address addr) public view returns (uint256){\r\n        return nft.balanceOf(addr);\r\n    }\r\n\r\n    //get the current NFT Item id\r\n    function getNFTId() public view returns (uint256){\r\n        return itemID;\r\n    }\r\n\r\n    //check NFT tokenURI with its unique id\r\n    function checkURI(uint256 tokenId) public view returns (string memory){\r\n        return nft.tokenURI(tokenId);\r\n    }\r\n\r\n    //check nft owner with its unique id\r\n    function checkOwner(uint256 tokenId) public view returns (address){\r\n        return nft.ownerOf(tokenId);\r\n    }\r\n\r\n    //after user \"Get\" the shared file, transfer the NFT to the user and reward the sharer, also delete the data item\r\n    function transferNFT(address from, address to, uint256 id, uint256 nftid) public{\r\n        nft.transferFrom(from, to, nftid);\r\n        delete(items[id]);\r\n\r\n        uint256 amount = 100 * 10**18;\r\n        token.mint(from, amount);\r\n\r\n        emit NFTtransfer(from, to, nftid);\r\n        emit TokenMint(from, amount);\r\n    }\r\n}",
  "sourcePath": "C:/Users/Jacky/Desktop/CS/projects/file-sharing-dapp/src/contracts/FileShare.sol",
  "compiler": {
    "name": "solc",
    "version": "0.7.6+commit.7338295f.Emscripten.clang"
  },
  "schemaVersion": "3.2.3",
  "updatedAt": "2022-03-23T09:15:17.051Z",
  "networkType": "ethereum",
  "devdoc": {
    "kind": "dev",
    "methods": {},
    "version": 1
  },
  "userdoc": {
    "kind": "user",
    "methods": {},
    "version": 1
  }
}