{
  "contractName": "FileShare",
  "abi": [
    {
      "inputs": [
        {
          "internalType": "contract Token",
          "name": "_token",
          "type": "address"
        },
        {
          "internalType": "contract NFT",
          "name": "_nft",
          "type": "address"
        }
      ],
      "stateMutability": "nonpayable",
      "type": "constructor"
    },
    {
      "anonymous": false,
      "inputs": [
        {
          "indexed": true,
          "internalType": "address",
          "name": "addr",
          "type": "address"
        },
        {
          "indexed": false,
          "internalType": "uint256",
          "name": "itemID",
          "type": "uint256"
        }
      ],
      "name": "NftMint",
      "type": "event"
    },
    {
      "anonymous": false,
      "inputs": [
        {
          "indexed": true,
          "internalType": "address",
          "name": "addr",
          "type": "address"
        },
        {
          "indexed": false,
          "internalType": "uint256",
          "name": "amount",
          "type": "uint256"
        }
      ],
      "name": "TokenMint",
      "type": "event"
    },
    {
      "inputs": [
        {
          "internalType": "address",
          "name": "addr",
          "type": "address"
        },
        {
          "internalType": "string",
          "name": "ipfsURI",
          "type": "string"
        }
      ],
      "name": "mintNFT",
      "outputs": [],
      "stateMutability": "nonpayable",
      "type": "function"
    },
    {
      "inputs": [
        {
          "internalType": "address",
          "name": "addr",
          "type": "address"
        },
        {
          "internalType": "uint256",
          "name": "amount",
          "type": "uint256"
        }
      ],
      "name": "mintToken",
      "outputs": [],
      "stateMutability": "nonpayable",
      "type": "function"
    },
    {
      "inputs": [
        {
          "internalType": "address",
          "name": "addr",
          "type": "address"
        }
      ],
      "name": "balanceOfFILO",
      "outputs": [
        {
          "internalType": "uint256",
          "name": "",
          "type": "uint256"
        }
      ],
      "stateMutability": "view",
      "type": "function",
      "constant": true
    },
    {
      "inputs": [
        {
          "internalType": "address",
          "name": "addr",
          "type": "address"
        }
      ],
      "name": "balanceOfNFT",
      "outputs": [
        {
          "internalType": "uint256",
          "name": "",
          "type": "uint256"
        }
      ],
      "stateMutability": "view",
      "type": "function",
      "constant": true
    },
    {
      "inputs": [
        {
          "internalType": "uint256",
          "name": "tokenId",
          "type": "uint256"
        }
      ],
      "name": "checkTokenURI",
      "outputs": [
        {
          "internalType": "string",
          "name": "",
          "type": "string"
        }
      ],
      "stateMutability": "view",
      "type": "function",
      "constant": true
    },
    {
      "inputs": [
        {
          "internalType": "uint256",
          "name": "tokenId",
          "type": "uint256"
        }
      ],
      "name": "checkNftOwner",
      "outputs": [
        {
          "internalType": "address",
          "name": "",
          "type": "address"
        }
      ],
      "stateMutability": "view",
      "type": "function",
      "constant": true
    }
  ],
  "bytecode": "0x608060405234801561001057600080fd5b50604051610aaf380380610aaf8339818101604052604081101561003357600080fd5b810190808051906020019092919080519060200190929190505050816000806101000a81548173ffffffffffffffffffffffffffffffffffffffff021916908373ffffffffffffffffffffffffffffffffffffffff16021790555080600160006101000a81548173ffffffffffffffffffffffffffffffffffffffff021916908373ffffffffffffffffffffffffffffffffffffffff16021790555050506109cf806100e06000396000f3fe608060405234801561001057600080fd5b50600436106100625760003560e01c80632531bd55146100675780632d15687c146100bf5780636517982f1461016657806379c65068146101be578063eacabe141461020c578063f5b100ea146102e7575b600080fd5b6100936004803603602081101561007d57600080fd5b810190808035906020019092919050505061033f565b604051808273ffffffffffffffffffffffffffffffffffffffff16815260200191505060405180910390f35b6100eb600480360360208110156100d557600080fd5b81019080803590602001909291905050506103f6565b6040518080602001828103825283818151815260200191508051906020019080838360005b8381101561012b578082015181840152602081019050610110565b50505050905090810190601f1680156101585780820380516001836020036101000a031916815260200191505b509250505060405180910390f35b6101a86004803603602081101561017c57600080fd5b81019080803573ffffffffffffffffffffffffffffffffffffffff16906020019092919050505061056b565b6040518082815260200191505060405180910390f35b61020a600480360360408110156101d457600080fd5b81019080803573ffffffffffffffffffffffffffffffffffffffff16906020019092919080359060200190929190505050610637565b005b6102e56004803603604081101561022257600080fd5b81019080803573ffffffffffffffffffffffffffffffffffffffff1690602001909291908035906020019064010000000081111561025f57600080fd5b82018360208201111561027157600080fd5b8035906020019184600183028401116401000000008311171561029357600080fd5b91908080601f016020809104026020016040519081016040528093929190818152602001838380828437600081840152601f19601f82011690508083019250505050505050919291929050505061073f565b005b610329600480360360208110156102fd57600080fd5b81019080803573ffffffffffffffffffffffffffffffffffffffff1690602001909291905050506108cc565b6040518082815260200191505060405180910390f35b6000600160009054906101000a900473ffffffffffffffffffffffffffffffffffffffff1673ffffffffffffffffffffffffffffffffffffffff16636352211e836040518263ffffffff1660e01b81526004018082815260200191505060206040518083038186803b1580156103b457600080fd5b505afa1580156103c8573d6000803e3d6000fd5b505050506040513d60208110156103de57600080fd5b81019080805190602001909291905050509050919050565b6060600160009054906101000a900473ffffffffffffffffffffffffffffffffffffffff1673ffffffffffffffffffffffffffffffffffffffff1663c87b56dd836040518263ffffffff1660e01b81526004018082815260200191505060006040518083038186803b15801561046b57600080fd5b505afa15801561047f573d6000803e3d6000fd5b505050506040513d6000823e3d601f19601f8201168201806040525060208110156104a957600080fd5b81019080805160405193929190846401000000008211156104c957600080fd5b838201915060208201858111156104df57600080fd5b82518660018202830111640100000000821117156104fc57600080fd5b8083526020830192505050908051906020019080838360005b83811015610530578082015181840152602081019050610515565b50505050905090810190601f16801561055d5780820380516001836020036101000a031916815260200191505b506040525050509050919050565b60008060009054906101000a900473ffffffffffffffffffffffffffffffffffffffff1673ffffffffffffffffffffffffffffffffffffffff166370a08231836040518263ffffffff1660e01b8152600401808273ffffffffffffffffffffffffffffffffffffffff16815260200191505060206040518083038186803b1580156105f557600080fd5b505afa158015610609573d6000803e3d6000fd5b505050506040513d602081101561061f57600080fd5b81019080805190602001909291905050509050919050565b670de0b6b3a76400008102905060008054906101000a900473ffffffffffffffffffffffffffffffffffffffff1673ffffffffffffffffffffffffffffffffffffffff166340c10f1983836040518363ffffffff1660e01b8152600401808373ffffffffffffffffffffffffffffffffffffffff16815260200182815260200192505050600060405180830381600087803b1580156106d557600080fd5b505af11580156106e9573d6000803e3d6000fd5b505050508173ffffffffffffffffffffffffffffffffffffffff167f36bf5aa3964be01dbd95a0154a8930793fe68353bdc580871ffb2c911366bbc7826040518082815260200191505060405180910390a25050565b600160009054906101000a900473ffffffffffffffffffffffffffffffffffffffff1673ffffffffffffffffffffffffffffffffffffffff1663eacabe1483836040518363ffffffff1660e01b8152600401808373ffffffffffffffffffffffffffffffffffffffff16815260200180602001828103825283818151815260200191508051906020019080838360005b838110156107ea5780820151818401526020810190506107cf565b50505050905090810190601f1680156108175780820380516001836020036101000a031916815260200191505b509350505050602060405180830381600087803b15801561083757600080fd5b505af115801561084b573d6000803e3d6000fd5b505050506040513d602081101561086157600080fd5b81019080805190602001909291905050506002819055508173ffffffffffffffffffffffffffffffffffffffff167f1b491f3c27f1c2f9f3f5750ffbc424f247dee42fe14c2c10b2213db655a299716002546040518082815260200191505060405180910390a25050565b6000600160009054906101000a900473ffffffffffffffffffffffffffffffffffffffff1673ffffffffffffffffffffffffffffffffffffffff166370a08231836040518263ffffffff1660e01b8152600401808273ffffffffffffffffffffffffffffffffffffffff16815260200191505060206040518083038186803b15801561095757600080fd5b505afa15801561096b573d6000803e3d6000fd5b505050506040513d602081101561098157600080fd5b8101908080519060200190929190505050905091905056fea2646970667358221220dc3fb12745a291b6d419a00ddc24f3872a80d133f34c22dba1e8bad714d4f64264736f6c63430007060033",
  "immutableReferences": {},
  "source": "// SPDX-License-Identifier: MIT\r\npragma solidity >=0.5.16;\r\n\r\nimport \"./Token.sol\";\r\nimport \"./NFT.sol\";\r\n\r\ncontract FileShare {\r\n    //assign Token and NFT contract to variable\r\n    Token private token;\r\n    NFT private nft;\r\n\r\n    //Item id for a unique NFT\r\n    uint256 private itemID;\r\n\r\n    //Example IPFS URI for NFT minting test\r\n    //string ipfsURI = \"https://ipfs.infura.io/ipfs/QmQawtxnXrqT1QyodQnSVj6Hwqaib97GNMrqk7c44Cadwf\"; \r\n\r\n    //event for token and NFT minting\r\n    event NftMint(address indexed addr, uint256 itemID);\r\n    event TokenMint(address indexed addr, uint256 amount);\r\n\r\n    //pass as constructor argument deployed Token contract\r\n    constructor(Token _token, NFT _nft) public {\r\n      //assign token deployed contract to variable\r\n      token = _token;\r\n      nft = _nft;\r\n    }\r\n\r\n    //minting NFT to an account\r\n    function mintNFT(address addr, string memory ipfsURI) public{\r\n        itemID = nft.mintNFT(addr, ipfsURI);\r\n        emit NftMint(addr, itemID);\r\n    }\r\n\r\n    //minting \"FILO\" token to an account\r\n    function mintToken(address addr, uint256 amount) public{\r\n        amount *= 10**18;\r\n        token.mint(addr, amount);\r\n        emit TokenMint(addr, amount);\r\n    }\r\n\r\n    //check balance of \"FILO\" token\r\n    function balanceOfFILO(address addr) public view returns (uint256){\r\n        return token.balanceOf(addr);\r\n    }\r\n\r\n    //check balance of \"FileShareNFT\" NFT token\r\n    function balanceOfNFT(address addr) public view returns (uint256){\r\n        return nft.balanceOf(addr);\r\n    }\r\n\r\n    //check NFT tokenURI with its unique id\r\n    function checkTokenURI(uint256 tokenId) public view returns (string memory){\r\n        return nft.tokenURI(tokenId);\r\n    }\r\n\r\n    //check nft owner with its unique id\r\n    function checkNftOwner(uint256 tokenId) public view returns (address){\r\n        return nft.ownerOf(tokenId);\r\n    }\r\n}",
  "sourcePath": "C:/Users/Jacky/Desktop/CS/projects/file-sharing-dapp/src/contracts/FileShare.sol",
  "compiler": {
    "name": "solc",
    "version": "0.7.6+commit.7338295f.Emscripten.clang"
  },
  "schemaVersion": "3.2.3",
  "updatedAt": "2022-03-08T07:47:56.439Z",
  "networkType": "ethereum",
  "devdoc": {
    "kind": "dev",
    "methods": {},
    "version": 1
  },
  "userdoc": {
    "kind": "user",
    "methods": {},
    "version": 1
  }
}